:100000000A128A11F32F00308A000408840A82073A
:100010000034563461346C346F34723420344134DB
:100020007434753461346C3469347A3461346434D2
:100030006F340034533461346C3476346134723448
:10004000203453346534743450346F3469346E342E
:10005000743400344D346F3464346F3420344C3491
:100060006F34633461346C3420342E342E342E34A7
:1000700000345034723465347334733469346F34FB
:100080006E34653420345034613472346134003459
:1000900031342D3453347434613472347434203434
:1000A000203432342D3453346534743400343134D4
:1000B0002D3449346E346334723420342034323475
:1000C0002D34503472346F34783400344C34693405
:1000D0006734613464346F342034203432342D3446
:1000E0006F3466346634003443346F346E347434A1
:1000F00069346E347534613472342E342E342E34B7
:1001000000345034613472346134203449346E34F4
:10011000693463346934613472340034533465347F
:10012000743450346F3469346E3474343A34203457
:10013000003432342D3449346E34693463346934D4
:100140006F34003432342D3456346F346C3474349C
:1001500061347234003431342D34533461346C34AE
:100160007634613472340034543465346D34703410
:100170003A342034003454343A3420340034443493
:1001800043343A340034F0007008831203138800BB
:10019000080064008001840A040603190034040680
:1001A000CA28831203132508A1002408A0002B30BD
:1001B000A8002808A2000A128A112E210A128A1108
:1001C00083120313260827040319E728E828EF28D9
:1001D00082300A128A1571250A128A11F528C23056
:1001E0000A128A1571250A128A11AC300A128A1570
:1001F0002A250A128A11831203132D080A128A155E
:1002000097250A128A11831203132E080A128A15DF
:1002100097250A128A112C300A128A1597250A127C
:100220008A11831203132F080A128A1597250A12BE
:100230008A1143300A128A1597250A128A1103304F
:1002400083120313AA008A30A9005530A800A80B16
:100250002729A90B2729AA0B272908001030F60007
:100260002730F700831203132108F9002008F80053
:100270000A128A15CF260A128A117608303E831296
:100280000313A30022088400230883138000E830AE
:10029000F6000330F7002108F3002008F2001030C8
:1002A000F0002730F1000A128A1552260A128A112C
:1002B0007108F9007008F8000A128A15CF260A1290
:1002C0008A117608303E83120313A300220A8400A9
:1002D0002308831380006430F6000030F700210803
:1002E000F3002008F200E830F0000330F1000A12B9
:1002F0008A1552260A128A117108F9007008F8004E
:100300000A128A15CF260A128A117608303E831205
:100310000313A3002208023E8400230883138000F5
:100320000A30F6000030F7002108F3002008F20040
:100330006430F0000030F1000A128A1552260A12C9
:100340008A117108F9007008F8000A128A15CF2680
:100350000A128A117608303E83120313A300220882
:10036000033E84002308831380000A30F00000302D
:10037000F1002108F3002008F2000A128A15522623
:100380000A128A117008303E83120313A300220858
:10039000043E84002308831380002208053E840065
:1003A0008001080083120313B601B7010A128A15EF
:1003B0001E260A128A1101300A128A1571250A12A4
:1003C0008A1180300A128A1571250A128A11831245
:1003D00003136808303E0A128A1597250A128A11FB
:1003E000831203136608303E0A128A1597250A12F3
:1003F0008A11063083120313B5001330B400AD30F8
:10040000B300B30B012AB40B012AB50B012A01304A
:100410000A128A1571250A128A1181300A128A1568
:1004200071250A128A1122300A128A152A250A1207
:100430008A11033083120313B5008A30B40055309B
:10044000B300B30B212AB40B212AB50B212A0130AA
:100450000A128A1571250A128A116A2A0A128A1545
:10046000EA250A128A11770883120313A500760879
:10047000A4000130A6000030A7000A128A11D12082
:100480000A128A11C1300A128A1571250A128A11BC
:1004900040300A128A152A250A128A110D30831259
:1004A0000313B400FB30B300B30B542AB40B542A2B
:1004B0008312031386185D2A5E2A622A0130B60071
:1004C0000030B7000619652A662A6A2A0230B6008B
:1004D0000030B70083120313360837040319712A5A
:1004E000722A2E2A3708B2003608B10008000130FF
:1004F0000A128A1571250A128A11362B0A128A15D8
:10050000EA250A128A11770883120313CD007608B0
:10051000CC000A128A1132260A128A11831203139E
:100520002708C8002808C9000030C91BFF30CA00CE
:10053000CB004D08A1004C08A0004230BF003F088E
:10054000A2000A128A112E210A128A1183120313A1
:100550004908A1004808A0004E30BF003F08A20093
:100560000A128A112E210A128A1181300A128A1562
:1005700071250A128A115E300A128A152A250A127A
:100580008A11C0300A128A1571250A128A11B330F5
:100590000A128A152A250A128A11831203134408A3
:1005A0000A128A1597250A128A1183120313450825
:1005B0000A128A1597250A128A112C300A128A15F6
:1005C00097250A128A118312031346080A128A1504
:1005D00097250A128A1120300A128A1597250A12C5
:1005E0008A11831203134E03031DF72AF82AF92AEE
:1005F000CF01B7300A128A152A250A128A118312EE
:1006000003134F080A128A1597250A128A118312BA
:10061000031350080A128A1597250A128A118312A9
:10062000031351080A128A1597250A128A112530D8
:100630000A128A1597250A128A11033083120313AE
:10064000C1008A30C0005530BF00BF0B252BC00B46
:10065000252BC10B252B831203130619302B312BAD
:10066000362B87109501BD01BE013C2B831203136D
:1006700006193B2B3C2B7E2A080083120313A20190
:10068000A301A401A501A001A10101300A128A154C
:1006900071250A128A1181300A128A1571250A12EF
:1006A0008A114F300A128A152A250A128A1102303D
:1006B000FC000430FB00BA30FA00FA0B5D2BFB0B98
:1006C0005D2BFC0B5D2B0000B82BC2300A128A1583
:1006D00071250A128A1186300A128A152A250A12F1
:1006E0008A11831203132208303E0A128A159725B5
:1006F0000A128A11831203132408303E0A128A1543
:1007000097250A128A110D30FB00FB30FA00FA0B14
:10071000872BFB0B872B8C2B831203138618912BB3
:10072000922B982B0130A4070318A50A0030A507C7
:100730000A3024062504031D9E2B9F2BB02BA401F9
:10074000A5010130A2070318A30A0030A3070A304D
:1007500022062304031DAD2BAE2BB02BA201A30157
:100760000619B32BB42BB82B0230A0000030A10027
:1007700083120313200821040319BF2BC02B652B00
:10078000A001A10101300A128A1571250A128A11ED
:1007900081300A128A1571250A128A11A3300A12B1
:1007A0008A152A250A128A11C1300A128A15712562
:1007B0000A128A1191300A128A152A250A128A1100
:1007C0000330FC008A30FB005530FA00FA0BE62BB0
:1007D000FB0BE62BFC0BE62BED2B1D2C8618F12BCF
:1007E000F22B152C2408303EFA007A08F0000A306B
:1007F0000A128A15BD250A128A11831203132208D0
:10080000303EFA007A08F0002A300A128A15BD2517
:100810000A128A110A128A158C260A128A110130CC
:1008200083120313A0000030A1000619182C192C04
:100830001D2C0130A0000030A100831203132008FA
:1008400021040319242C252CEE2B0800FF308312E1
:100850000313D800FF30D9000A30F0000030F10057
:100860006B08F3006A08F2000A128A1552260A126F
:100870008A11710883120313D7007008D6000A305A
:10088000F6000030F70056086A02F8005708031C0B
:10089000570A6B02F9000A128A15CF260A128A112A
:1008A000831603131C149C141C158717871007113B
:1008B0000713861406158510051488010910891080
:1008C00085148312031387100711861406150A1264
:1008D0008A1513270A128A11831603131F1783120E
:1008E00003139F171F13C7309F05831603139F170A
:1008F0001F08F03902389F00831203131F140F30B2
:100900009700F930831603139200831203139501A5
:1009100001309200121501300A128A1571250A124F
:100920008A1180300A128A1571250A128A11313013
:100930000A128A152A250A128A11C0300A128A154B
:1009400071250A128A116C300A128A152A250A1298
:100950008A111A3083120313D500F730D400D40B58
:10096000AF2CD50BAF2CB42C83120313861CB92CDF
:10097000BA2CBE2C0619BD2CBE2CB42C580A031D53
:10098000C52C590A031DC52CC62CD12C0A128A115C
:1009900014250A128A117B0883120313D9007A08DE
:1009A000D80058085904031DD62CD72CE32C0A1262
:1009B0008A11D2210A128A11831203133208D90034
:1009C0003108D800B42C023058065904031DE92C14
:1009D000EA2CF92C0A128A113D230A128A11831279
:1009E0000313D801D9010A128A151E260A128A1188
:1009F000B42C58035904031DFE2CFF2C102D0A1291
:100A00008A151E260A128A110A128A1177220A12E0
:100A10008A11831203133E08D9003D08D800B42C74
:100A2000B42C0A128A11002883120313A301A40113
:100A3000A501A601A701A80101300A128A15712596
:100A40000A128A1180300A128A1571250A128A1137
:100A500012300A128A152A250A128A11C0300A1287
:100A60008A1571250A128A1179300A128A152A25E7
:100A70000A128A11073083120313A2005830A10012
:100A80005930A000A00B422DA10B422DA20B422DEC
:100A90000F2E01300A128A1571250A128A1181302F
:100AA0000A128A1571250A128A114F300A128A1504
:100AB0002A250A128A11B02DC2300A128A15712510
:100AC0000A128A1186300A128A152A250A128A11F8
:100AD000831203132308303E0A128A1597250A123F
:100AE0008A11831203132508303E0A128A159725AE
:100AF0000A128A110D3083120313A100FB30A000EB
:100B0000A00B802DA10B802D831203138618892D35
:100B10008A2D902D0130A5070318A60A0030A607DC
:100B20000A3025062604031D962D972DA82DA50114
:100B3000A6010130A3070318A40A0030A4070A3055
:100B400023062404031DA52DA62DA82DA301A40171
:100B50000619AB2DAC2DB02D0130A7000030A80038
:100B60008312031327032804031DB72DB82D5C2D12
:100B7000A701A80101300A128A1571250A128A11EB
:100B800081300A128A1571250A128A11A3300A12BD
:100B90008A152A250A128A11C1300A128A1571256E
:100BA0000A128A119A300A128A152A250A128A1103
:100BB000033083120313A2008A30A1005530A00035
:100BC000A00BE02DA10BE02DA20BE02DFE2D861831
:100BD000EA2DEB2DF62D0A128A158C260A128A119F
:100BE000013083120313A7000030A8000619F92D65
:100BF000FA2DFE2D0230A7000030A8008312031347
:100C0000270828040319052E062EE72D0230270693
:100C10002804031D0C2E0D2E0F2EA701A8018312F0
:100C2000031327032804031D162E172E492D25080C
:100C3000303EA0002008F0000A300A128A15BD25B7
:100C40000A128A11831203132308303EA0002008E1
:100C5000F0002A300A128A15BD250A128A11FA01FB
:100C6000FB0108000A128A15EA250A128A11770880
:100C700083120313B2007608B1006B08F1006A0812
:100C8000F0000A30F2000030F3000A128A154C25F9
:100C90000A128A118312031331087002B30032085A
:100CA000031C320A7102B400DD1B692E5D08031DAE
:100CB000682E01305C02031D652E86305B02031D29
:100CC000652EA0305A02031D652E0318682E692E6A
:100CD0009B2E831203133408F1003308F0000A300E
:100CE000F2000030F3000A128A154C250A128A110C
:100CF000700883120313A9007108AA000030AA1B10
:100D0000FF30AB00AC002908DA072A0803110318EA
:100D1000013E03198C2EDB072B0803110318013E3B
:100D20000319932EDC072C0803110318013E031945
:100D30009A2EDD07A52E003083120313DD0001304B
:100D4000DC008630DB00A030DA000030F900003033
:100D5000F8000030F7006430F6005A08A9005B087C
:100D6000AA005C08AB005D08AC003C30F00000302D
:100D7000F1003408F3003308F2000A128A154C25FA
:100D80000A128A11700883120313AD007108AE00B5
:100D90000030AE1BFF30AF00B0002D08A9072E08B1
:100DA00003182E0FD42ED52EAA072F0803182F0FA5
:100DB000DA2EDB2EAB0730080318300AAC072C08FC
:100DC000FD002B08FC002A08FB002908FA000A1283
:100DD0008A1563270A128A11760883120313B50055
:100DE0007708B6000030B61BFF30B700B800B81F58
:100DF000FA2EFB2E042F0030B8000030B700003070
:100E0000B6000030B500222FB81B172F3808031D7D
:100E1000182F3708031D182F04303602031D142F16
:100E200000303502031D142F031C172F182F222FFB
:100E3000003083120313B8000030B7000330B6004F
:100E4000FF30B500831203136B08F1006A08F0004D
:100E50000A30F2000030F3000A128A154C250A12FB
:100E60008A117008FF3E83120313A900710803184A
:100E7000013EFF3EAA000A128A15EA250A128A11CB
:100E8000831203132A087702031D482F29087602CC
:100E900003184B2F4C2F9E2F871003308312031300
:100EA000AB008A30AA005530A900A90B552FAA0B18
:100EB000552FAB0B552F831203133908A9003A089D
:100EC000AA003B08AB003C08AC000230AD002C0D82
:100ED000AC0CAB0CAA0CA90CAD0B672F2908950024
:100EE0003908A9003A08AA003B08AB003C08AC004E
:100EF0000130AD002C0DAC0CAB0CAA0CA90CAD0B49
:100F00007A2F2918842F882F8312031397168B2F7B
:100F100083120313971239188E2F922F8312031303
:100F20001716952F8312031317123808BC003708C1
:100F3000BB003608BA003508B900D72F6B08F1009E
:100F40006A08F0000A30F2000030F3000A128A1535
:100F50004C250A128A117008033E83120313A9005C
:100F600071080318013E003EAA000A128A15EA25FC
:100F70000A128A117708831203132A02031DC22F53
:100F8000760829020318C52FC62FD72F0030BC00C2
:100F90000030BB000030BA000030B9000030DD0086
:100FA0000030DC000030DB000030DA0087140A1269
:100FB0008A15EA250A128A117708803AFF008130E3
:100FC0007F02031DE52F173076020318E82FE92F63
:100FD000EC2F831203138710831203133A08A8001F
:100FE0003908A700080083135A3084006C300A12B5
:100FF0008A11C9200A128A1183010A128A11262C29
:101A2600F1006400831603178C181A2D1B2D142D34
:101A36007108831203178D003F30F000700883167B
:101A460003178C050C14831203170C080800F60004
:101A5600F5013E2D7508760784000A128A110320C7
:101A66000A128A150A128A1597250A128A15013052
:101A7600F4007408F5077508760784000A128A11BF
:101A860003200A128A15003A031D4A2D4B2D2D2DCF
:101A96000800F401F501701C512D522D582D7208C5
:101AA600F4070318F50A7308F50701300310F20D61
:101AB600F30DFF3E031D592D01300310F10CF00C00
:101AC600FF3E031D602D70087104031D6B2D6C2DE8
:101AD6004E2D7508F1007408F0000800F30083121B
:101AE6000313891473080A128A11C3200A128A156D
:101AF6008312031309100430F200E430F100F10BF5
:101B0600822DF20B822D00008312031389100430FC
:101B1600F200E430F100F10B8E2DF20B8E2D000059
:101B26008312031389140800F30083120313891424
:101B360073080A128A11C3200A128A158312031324
:101B460009140430F200E430F100F10BA82DF20B79
:101B5600A82D00008312031389100430F200E4302C
:101B6600F100F10BB42DF20BB42D00008312031318
:101B760089140800F200831603178C18C32DC42D90
:101B8600BE2D7208831203178D0070088C003F303B
:101B9600F1007108831603178C05831203130310D3
:101BA6008B1FD62DD72DD82D03148B138316031711
:101BB6000C1555308D00AA308D008C140C11831233
:101BC6000313031CE72DE82DE92D8B17080083125C
:101BD60003131F151F19F02DF12DED2D1E08FB0007
:101BE600831603131E08FA007B08F1007A08F0003A
:101BF6000A30F2000030F3000A128A154C250A1248
:101C06008A157008F8007108F9000310F90CF80C31
:101C16000310F90CF80C0310F90CF80C78086A3E5E
:101C2600FA0079080318013EFF3EFB007B08F70027
:101C36007A08F60008002A300A128A1513250A12B5
:101C46008A15D03E83120313E800FF3003180030D4
:101C5600E9000A300A128A1513250A128A15D03E9F
:101C660083120313E600FF3003180030E70069080B
:101C7600F1006808F0000A30F2000030F3000A12A2
:101C86008A154C250A128A158312031366087007F3
:101C9600EA0067080318670A7107EB000800700876
:101CA60071040319572E582E872EF501F50A662E54
:101CB60001300310F00DF10DFF3E031D5C2E0130C7
:101CC600F4007408F507F11F692E6A2E5B2E710861
:101CD6007302031D702E70087202031C732E742E7D
:101CE6007A2E7008F2027108031CF303F302013026
:101CF6000310F10CF00CFF3E031D7B2E0130F502A4
:101D0600031D862E872E6A2E7308F1007208F000D6
:101D160008000A128A151E260A128A1501300A12AE
:101D26008A1571250A128A1580300A128A157125BC
:101D36000A128A1501300A128A152A250A128A15EC
:101D4600C1300A128A1571250A128A1586300A12BE
:101D56008A152A250A128A15831203136808303E4B
:101D66000A128A1597250A128A1583120313660822
:101D7600303E0A128A1597250A128A150630F9008E
:101D86001330F800AD30F700F70BC72EF80BC72E4F
:101D9600F90BC72ECE2E0800FB01FC01760877044E
:101DA6000319D62ED72E0E2FFD01FD0AE52E013082
:101DB6000310F60DF70DFF3E031DDB2E0130FA0072
:101DC6007A08FD07F71FE82EE92EDA2E01300310F8
:101DD600FB0DFC0DFF3E031DEA2E77087902031D5D
:101DE600F62E76087802031CF92EFA2E012F7608B5
:101DF600F8027708031CF903F9027B14013003107B
:101E0600F70CF60CFF3E031D022F0130FD02031DE9
:101E16000D2F0E2FE92E7C08F7007B08F600080030
:101E260083120313891009101A30F500F830F400F4
:101E3600F40B1B2FF50B1B2F0000831203138914C1
:101E460038300A128A1571250A128A150730F500EC
:101E56007D30F400F40B2D2FF50B2D2F38300A12A0
:101E66008A1571250A128A15C730F4003A2FF40B29
:101E7600392F3D2F3E2F38300A128A1571250A1246
:101E86008A1508300A128A1571250A128A150F302A
:101E96000A128A1571250A128A1501300A128A1544
:101EA60071250A128A1538300A128A1571250A1206
:101EB6008A1580300A128A1571250A128A150800B9
:101EC60083120313A201F91F692F6A2F772FF609D0
:101ED600F709F809F909F60A0319F70A0319F80ABE
:101EE6000319F90AA201A20AFD1F7A2F7B2F8A2F56
:101EF600FA09FB09FC09FD09FA0A0319FB0A031989
:101F0600FC0A0319FD0A0130A0002008A2060030D1
:101F1600A6000030A5000030A4000030A300790818
:101F26007804770476040319992F9A2FE72FA101D5
:101F3600A10AAA2F0130A0000310F60DF70DF80D27
:101F4600F90DA00B9F2F0130A0002008A107F91F53
:101F5600AD2FAE2F9D2F0130A0000310A30DA40DB1
:101F6600A50DA60DA00BB02F79087D02031DC52F68
:101F760078087C02031DC52F77087B02031DC52F39
:101F860076087A02031CC82FC92FD82F7608FA02C2
:101F96007708031C770FFB027808031C780FFC02F6
:101FA6007908031C790FFD02231401300310F90C84
:101FB600F80CF70CF60CFF3E031DD92F0130A102D9
:101FC600031DE62FE72FAE2F22080319EB2FEC2F68
:101FD600F72FA309A409A509A609A30A0319A40AA8
:101FE6000319A50A0319A60A2608F9002508F80008
:0A1FF6002408F7002308F600080095
:02400E00393F38
:00000001FF
